:100000000C942A000C943C000C943C000C943C0092
:100010000C943C000C943C000C943C000C943C0070
:100020000C943C000C943C000C943C000C943C0060
:100030000C943C000C943C000C943C000C943C0050
:100040000C943C000C943C000C943C000C943C0040
:100050000C943C0011241FBECFE5D8E0DEBFCDBF1D
:1000600020E0A0E6B0E001C01D92A836B207E1F79B
:100070000E94D7000C94CE050C94000086B18760D6
:1000800086B987B1806487B986B1806886B986B140
:10009000806486B9089597B1907F97B997B1892BFD
:1000A00087B986B1806486B93699FECF84B195B19F
:1000B000089583B7896683BF87B3886087BB089537
:1000C000CF92DF92EF92FF926B017C0120E030E053
:1000D000A9010E945C05181624F0C701B6019058CA
:1000E00002C0C701B601FF90EF90DF90CF90089556
:1000F0004F925F926F927F92AF92BF92CF92DF92B8
:10010000EF92FF920F931F93CF93DF93CDB7DEB79C
:100110002C970FB6F894DEBF0FBECDBF29013A0170
:10012000E982FA820B831C830E9497036D837E838E
:100130008F839887A60195016D8D7E8D8F8D98A1F7
:100140000E94970369877A878B879C87A301920116
:10015000C801B7010E9497039B01AC0169857A85AC
:100160008B859C850E9409049B01AC016D817E8179
:100170008F8198850E9461059B01AC01C601B50184
:100180000E9498032C960FB6F894DEBF0FBECDBF29
:10019000DF91CF911F910F91FF90EF90DF90CF9063
:1001A000BF90AF907F906F905F904F900895CF93E6
:1001B000DF93CDB7DEB72E970FB6F894DEBF0FBE34
:1001C000CDBF1ABA1BBA8FEF81BB0E943E000E94BE
:1001D000590083E00E944B003C0184E00E944B00E8
:1001E000BC0180E090E00E94AA046B017C0187E0E2
:1001F0000E944B002C0185E00E944B009E878D875A
:1002000020E030E040E853E4C701B6010E945C05FD
:100210008823B4F1611422E0720694F18D859E85E5
:10022000813092406CF141E0441642E0540644F1C2
:100230008091660090916700892B11F51DBC1CBC54
:100240008EB585608EBD8CB59DB581389E4338F4E2
:1002500082B3806282BB82B3846082BBF4CF82B3FC
:100260008F7D82BB82B38B7F82BB8EB5887F8EBD34
:100270001DBC1CBC81E090E09093670080936600F9
:100280008091660090916700019709F0A2CF82B338
:10029000886082BB82B3806182BB84E00E944B0095
:1002A000BC0180E090E00E94AA0469877A878B876E
:1002B0009C8781E00E944B00BC0180E090E00E949E
:1002C000AA0469837A838B839C8382E00E944B001B
:1002D000BC0180E090E00E94AA046B017C0120E058
:1002E00030E045EF53E469817A818B819C810E94E3
:1002F000970320E030E845E054E40E9409042B0114
:100300003C0126EF38EA46E453E4C701B6010E94F7
:10031000970324EA30EF42E553E40E9409046D8319
:100320007E838F83988783E00E944B0020E030E03B
:1003300040E054E469817A818B819C810E940404AD
:10034000181614F01CBE1EC083E48F938FE78F93A2
:100350001F921F92A12CB12C6501E12CF12C00E819
:1003600014E420E030E045EF53E469817A818B8129
:100370009C810E9478000F900F900F900F900E9428
:100380007B046CBF8D859E85811592408CF485E041
:100390000E944B009E878D871CBE82B38F7E82BBDE
:1003A00082B3877F82BB1092670010926600EACF0B
:1003B00020E030E040E85EE3C301B2010E945C054A
:1003C00018164CF520E030E040E853E469857A8562
:1003D0008B859C850E945C058823ECF080916400ED
:1003E00090916500892BB9F4809166009091670027
:1003F000019789F482B3806882BB82B3877F82BB16
:100400001DBC1CBC8EB585608EBD81E090E09093D4
:10041000650080936400809164009091650001976D
:1004200009F06BC084E00E944B00BC0180E090E0CA
:100430000E94AA046B017C0181E00E944B00BC0178
:1004400080E090E00E94AA0420E030E045EF53E411
:100450000E94970320E030E845E054E40E9409043C
:100460002B013C018CB59DB581159D47B0F420E072
:1004700030E040E85EE3C301B2010E940404882337
:1004800074F020E030E040E853E4C701B6010E9478
:100490000404882334F080E005C080E003C081E0DC
:1004A00001C081E0882379F082B3886082BB82B387
:1004B0008F7782BB8EB5887F8EBD1DBC1CBC109211
:1004C0006500109264008CB59DB581309D4708F49D
:1004D000A2CF82B38F7E82BB1CBE8EB5887F8EBDBD
:1004E0001DBC1CBC81E090E090936300809362008F
:1004F00010926500109264008ECF809162009091FE
:100500006300019709F065C081E00E944B00BC01C7
:1005100080E090E00E94AA0469837A838B839C83A5
:1005200082B3877F82BB20E030E045EF53E46981EE
:100530007A818B819C810E94970320E030E845E01E
:1005400054E40E9409042B013C012DEC3CEC4CE4EA
:100550005DE30E945C0518162CF41CBE82B38F7EEE
:1005600082BBCBCF2DEC3CEC4CE45DE3C301B2018C
:100570000E94040488230CF0C0CF83E48F938FE79C
:100580008F931F921F92A12CB12C6501E12CF12CAD
:1005900000E814E420E030E045EF53E469817A811B
:1005A0008B819C810E9478000F900F900F900F908C
:1005B0000E947B046CBF82B3806182BB82B388607F
:1005C00082BB82B38F7782BB10926300109262006D
:1005D00094CF2D813E814F815885C301B2010E9485
:1005E00097030E94600020E030E040E251E40E9466
:1005F0005C05181644F4809166009091670001979D
:1006000021F080E003C080E001C081E0882331F068
:1006100081E090E0909361008093600080916000A1
:1006200090916100019709F0D4CD81E00E944B00C8
:10063000BC0180E090E00E94AA046B017C0181E093
:100640000E944B00BC0180E090E00E94AA042B01B4
:100650003C0182B3806282BB82B3806482BB20E0B3
:1006600030E045EF53E4C701B6010E94970320E054
:1006700030E845E054E40E9409046B017C0126EF58
:1006800038EA46E453E4C301B2010E94970324EA26
:1006900030EF42E553E40E9409041DBC1CBC2EB59A
:1006A00027602EBD2CB53DB521303D4790F49B0110
:1006B000AC01C701B6010E9497030E94600020E0D0
:1006C00030E040E251E40E940404882324F481E0F5
:1006D00003C080E001C080E0882379F08EB5887F78
:1006E0008EBD1DBC1CBC82B38F7B82BB82B38F7D51
:1006F00082BB10926100109260008CB59DB5813074
:100700009D4708F48BCF1CBE82B38F7E82BB82B321
:10071000877F82BB82B3806482BB8EB5887F8EBDAB
:100720001DBC1CBC109267001092660077CF505819
:10073000BB27AA270E94AF030C9422050E94140530
:1007400038F00E941B0520F039F49F3F19F426F47D
:100750000C9411050EF4E095E7FB0C940B05E92FC2
:100760000E94330558F3BA17620773078407950789
:1007700020F079F4A6F50C9455050EF4E0950B2EB7
:10078000BA2FA02D0B01B90190010C01CA01A001E3
:100790001124FF27591B99F0593F50F4503E68F13E
:1007A0001A16F040A22F232F342F4427585FF3CF7F
:1007B000469537952795A795F0405395C9F77EF450
:1007C0001F16BA0B620B730B840BBAF09150A1F099
:1007D000FF0FBB1F661F771F881FC2F70EC0BA0F1F
:1007E000621F731F841F48F4879577956795B795A7
:1007F000F7959E3F08F0B0CF9395880F08F09927A2
:10080000EE0F9795879508950E94E70408F481E01C
:1008100008950E941D040C9422050E941B0558F0A7
:100820000E94140540F029F45F3F29F00C940B0559
:1008300051110C9456050C9411050E94330568F370
:100840009923B1F3552391F3951B550BBB27AA2789
:1008500062177307840738F09F5F5F4F220F331FC3
:10086000441FAA1FA9F335D00E2E3AF0E0E832D08B
:1008700091505040E695001CCAF72BD0FE2F29D08E
:10088000660F771F881FBB1F261737074807AB0760
:10089000B0E809F0BB0B802DBF01FF2793585F4FD5
:1008A0003AF09E3F510578F00C940B050C945605D8
:1008B0005F3FE4F3983ED4F3869577956795B795B7
:1008C000F7959F5FC9F7880F911D9695879597F9C2
:1008D0000895E1E0660F771F881FBB1F621773073B
:1008E0008407BA0720F0621B730B840BBA0BEE1F50
:1008F00088F7E09508950E943B0588F09F5798F08F
:10090000B92F9927B751B0F0E1F0660F771F881F14
:10091000991F1AF0BA95C9F714C0B13091F00E942E
:100920005505B1E008950C945505672F782F882759
:10093000B85F39F0B93FCCF3869577956795B39555
:10094000D9F73EF490958095709561957F4F8F4FC4
:100950009F4F0895E89409C097FB3EF490958095C9
:10096000709561957F4F8F4F9F4F9923A9F0F92F75
:1009700096E9BB279395F695879577956795B795F3
:10098000F111F8CFFAF4BB0F11F460FF1BC06F5FD9
:100990007F4F8F4F9F4F16C0882311F096E911C0EB
:1009A000772321F09EE8872F762F05C0662371F00C
:1009B00096E8862F70E060E02AF09A95660F771F20
:1009C000881FDAF7880F9695879597F90895990FFC
:1009D0000008550FAA0BE0E8FEEF16161706E80709
:1009E000F907C0F012161306E407F50798F0621B2A
:1009F000730B840B950B39F40A2661F0232B242BFF
:100A0000252B21F408950A2609F4A140A6958FEF1D
:100A1000811D811D089597F99F6780E870E060E06F
:100A200008959FEF80EC089500240A941616170687
:100A300018060906089500240A94121613061406CF
:100A400005060895092E0394000C11F4882352F032
:100A5000BB0F40F4BF2B11F460FF04C06F5F7F4FEA
:100A60008F4F9F4F089557FD9058440F551F59F0D1
:100A70005F3F71F04795880F97FB991F61F09F3F8B
:100A800079F087950895121613061406551FF2CFB4
:100A90004695F1DF08C0161617061806991FF1CF04
:100AA00086957105610508940895E894BB2766272B
:100AB0007727CB0197F908950E94E70408F48FEF98
:100AC00008950E9474050C9422050E94140538F0C4
:100AD0000E941B0520F0952311F00C940B050C943B
:100AE000110511240C9456050E94330570F3959F4F
:100AF000C1F3950F50E0551F629FF001729FBB2715
:100B0000F00DB11D639FAA27F00DB11DAA1F649FB0
:100B10006627B00DA11D661F829F2227B00DA11D63
:100B2000621F739FB00DA11D621F839FA00D611DE9
:100B3000221F749F3327A00D611D231F849F600D0A
:100B4000211D822F762F6A2F11249F5750409AF033
:100B5000F1F088234AF0EE0FFF1FBB1F661F771FBF
:100B6000881F91505040A9F79E3F510580F00C948A
:100B70000B050C9456055F3FE4F3983ED4F386953D
:100B800077956795B795F795E7959F5FC1F7FE2B2A
:100B9000880F911D9695879597F90895F894FFCF42
:00000001FF
