S01000004543552D436F64652E737265638F
S11300000C942A000C943C000C943C000C943C008E
S11300100C943C000C943C000C943C000C943C006C
S11300200C943C000C943C000C943C000C943C005C
S11300300C943C000C943C000C943C000C943C004C
S11300400C943C000C943C000C943C000C943C003C
S11300500C943C0011241FBECFE5D8E0DEBFCDBF19
S113006020E0A0E6B0E001C01D92AA36B207E1F795
S11300700E94D7000C9406060C94000086B1876099
S113008086B987B1806487B986B1806886B986B13C
S1130090806486B9089597B1907F97B997B1892BF9
S11300A087B986B1806486B93699FECF84B195B19B
S11300B0089583B7896683BF87B3886087BB089533
S11300C0CF92DF92EF92FF926B017C0120E030E04F
S11300D0A9010E949405181624F0C701B60190588E
S11300E002C0C701B601FF90EF90DF90CF90089552
S11300F04F925F926F927F92AF92BF92CF92DF92B4
S1130100EF92FF920F931F93CF93DF93CDB7DEB798
S11301102C970FB6F894DEBF0FBECDBF29013A016C
S1130120E982FA820B831C830E94CF036D837E8352
S11301308F839887A60195016D8D7E8D8F8D98A1F3
S11301400E94CF0369877A878B879C87A3019201DA
S1130150C801B7010E94CF039B01AC0169857A8570
S11301608B859C850E9441049B01AC016D817E813D
S11301708F8198850E9499059B01AC01C601B50148
S11301800E94D0032C960FB6F894DEBF0FBECDBFED
S1130190DF91CF911F910F91FF90EF90DF90CF905F
S11301A0BF90AF907F906F905F904F900895CF93E2
S11301B0DF93CDB7DEB72E970FB6F894DEBF0FBE30
S11301C0CDBF1ABA1BBA8FEF81BB0E943E000E94BA
S11301D0590083E00E944B003C0184E00E944B00E4
S11301E0BC0180E090E00E94E2046B017C0187E0A6
S11301F00E944B002C0185E00E944B009E878D8756
S113020020E030E048E453E4C701B6010E949405BD
S11302108823B4F1611422E0720694F18D859E85E1
S1130220813092406CF141E0441642E0540644F1BE
S11302308091680090916900892B11F51DBC1CBC4C
S11302408EB585608EBD8CB59DB581309D4738F4E3
S113025082B3806282BB82B3846082BBF4CF82B3F8
S11302608F7D82BB82B38B7F82BB8EB58A7F8EBD2E
S11302701DBC1CBC81E090E09093690080936800F1
S11302808091680090916900892B09F4A2CF82B310
S1130290886082BB82B3806182BB84E00E944B0091
S11302A0BC0180E090E00E94E20469877A878B8732
S11302B09C8781E00E944B00BC0180E090E00E949A
S11302C0E20469837A838B839C8382E00E944B00DF
S11302D0BC0180E090E00E94E2046B017C0120E01C
S11302E030E040E054E469817A818B819C810E94F2
S11302F0CF0320E030E84FEF53E40E9441042B0188
S11303003C0120E030E04CE453E4C701B6010E9414
S1130310CF0320E030E04EE453E40E9441046D83B7
S11303207E838F83988783E48F938FE78F931F92C5
S11303301F92A12CB12C6501E12C10ECF12E0FE7DA
S113034014E420E030E040E054E469817A818B8158
S11303509C810E9478000F900F900F900F900E9444
S1130360B3046CBF8D859E85811592408CF485E025
S11303700E944B009E878D871CBE82B38F7E82BBFA
S113038082B3877F82BB1092690010926800EACF23
S113039080E00E944B008115924054F081E090E08F
S11303A0909361008093600082B3886382BB07C02E
S11303B0109261001092600082B3877C82BB8091AE
S11303C0600090916100019731F520E030E048E44D
S11303D053E469857A858B859C850E9494058823DE
S11303E0D4F08091660090916700892BA1F48091EC
S11303F0680090916900019771F482B3806882BBB0
S11304001DBC1CBC8EB585608EBD81E090E09093D0
S11304106700809366008091660090916700019761
S113042009F072C084E00E944B00BC0180E090E0BF
S11304300E94E2046B017C0181E00E944B00BC013C
S113044080E090E00E94E2042B013C0180E00E94E5
S11304504B009A83898320E030E040E054E4C301F8
S1130460B2010E94CF0320E030E84FEF53E40E9432
S113047041042B013C018CB59DB581159D4788F441
S113048089819A818115924074F020E030E048E43B
S113049053E4C701B6010E943C04882334F080E091
S11304A005C080E003C081E001C081E0882379F0C9
S11304B082B3886082BB82B38F7782BB8EB58A7F1A
S11304C08EBD1DBC1CBC10926700109266008CB5DA
S11304D09DB581309D4708F49ECF82B38F7E82BB49
S11304E01CBE8EB58A7F8EBD1DBC1CBC82B3877FAB
S11304F082BB81E090E09093650080936400109249
S113050067001092660087CF809164009091650027
S1130510019709F09CC081E00E944B00BC0180E07F
S113052090E00E94E20469837A838B839C8382E057
S11305300E944B00BC0180E090E00E94E2046B0149
S11305407C0182B3877F82BB20E030E040E054E44A
S113055069817A818B819C810E94CF0320E030E8FD
S11305604FEF53E40E9441042B013C0120E030E0B2
S11305704CE453E4C701B6010E94CF0320E030E00D
S11305804EE453E40E9441046D837E838F839887F5
S11305902DEC3CEC4CE45DE3C301B2010E949405F4
S11305A0181664F02DEC3CEC4CE45DE36D817E8127
S11305B08F8198850E94940518162CF41CBE82B372
S11305C08F7E82BBA1CF2DEC3CEC4CE45DE3C301F8
S11305D0B2010E943C0488236CF02DEC3CEC4CE40A
S11305E05DE36D817E818F8198850E943C04882320
S11305F00CF08ACF83E48F938FE78F931F921F921F
S1130600A12CB12C6501E12C10ECF12E0FE714E4C0
S113061020E030E040E054E469817A818B819C8160
S11306200E9478000F900F900F900F900E94B304D7
S11306306CBF82B3806182BB82B3886082BB82B3A9
S11306408F7782BB10926500109264005DCF2D817C
S11306503E814F815885C301B2010E94CF030E949D
S1130660600020E030E040E05FE30E94940518164B
S113067044F48091680090916900019721F080E032
S113068003C080E001C081E0882359F01DBC1CBC7C
S11306908EB585608EBD81E090E090936300809379
S11306A062008091620090916300019709F091CDFE
S11306B081E00E944B00BC0180E090E00E94E204D3
S11306C06B017C0182E00E944B00BC0180E090E061
S11306D00E94E2042B013C0182B3806482BB20E0CF
S11306E030E040E054E4C701B6010E94CF0320E0AB
S11306F030E84FEF53E40E9441046B017C0120E099
S113070030E04CE453E4C301B2010E94CF0320E083
S113071030E04EE453E40E9441042CB53DB5213051
S11307203D4790F49B01AC01C701B6010E94CF0381
S11307300E94600020E030E040E05FE30E943C045F
S1130740882324F481E003C080E001C080E0882392
S113075061F08EB58E7F8EBD1DBC1CBC82B38F7BB9
S113076082BB10926300109262008CB59DB58130FB
S11307709D4708F496CF1CBE82B38F7E82BB82B3A2
S1130780877F82BB82B3806482BB8EB58A7F8EBD35
S11307901DBC1CBC109269001092680082CF505896
S11307A0BB27AA270E94E7030C945A050E944C0514
S11307B038F00E94530520F039F49F3F19F426F4D1
S11307C00C9449050EF4E095E7FB0C944305E92FDE
S11307D00E946B0558F3BA176207730784079507DD
S11307E020F079F4A6F50C948D050EF4E0950B2E0B
S11307F0BA2FA02D0B01B90190010C01CA01A0016F
S11308001124FF27591B99F0593F50F4503E68F1C9
S11308101A16F040A22F232F342F4427585FF3CF0A
S1130820469537952795A795F0405395C9F77EF4DB
S11308301F16BA0B620B730B840BBAF09150A1F024
S1130840FF0FBB1F661F771F881FC2F70EC0BA0FAA
S1130850621F731F841F48F4879577956795B79532
S1130860F7959E3F08F0B0CF9395880F08F099272D
S1130870EE0F9795879508950E941F0508F481E06F
S113088008950E9455040C945A050E94530558F08B
S11308900E944C0540F029F45F3F29F00C94430575
S11308A051110C948E050C9449050E946B0568F354
S11308B09923B1F3552391F3951B550BBB27AA2715
S11308C062177307840738F09F5F5F4F220F331F4F
S11308D0441FAA1FA9F335D00E2E3AF0E0E832D017
S11308E091505040E695001CCAF72BD0FE2F29D01A
S11308F0660F771F881FBB1F261737074807AB07EC
S1130900B0E809F0BB0B802DBF01FF2793585F4F60
S11309103AF09E3F510578F00C9443050C948E05F3
S11309205F3FE4F3983ED4F3869577956795B79542
S1130930F7959F5FC9F7880F911D9695879597F94D
S11309400895E1E0660F771F881FBB1F62177307C6
S11309508407BA0720F0621B730B840BBA0BEE1FDB
S113096088F7E09508950E94730588F09F5798F0E2
S1130970B92F9927B751B0F0E1F0660F771F881FA0
S1130980991F1AF0BA95C9F714C0B13091F00E94BA
S11309908D05B1E008950C948D05672F782F882775
S11309A0B85F39F0B93FCCF3869577956795B395E1
S11309B0D9F73EF490958095709561957F4F8F4F50
S11309C09F4F0895E89409C097FB3EF49095809555
S11309D0709561957F4F8F4F9F4F9923A9F0F92F01
S11309E096E9BB279395F695879577956795B7957F
S11309F0F111F8CFFAF4BB0F11F460FF1BC06F5F65
S1130A007F4F8F4F9F4F16C0882311F096E911C076
S1130A10772321F09EE8872F762F05C0662371F097
S1130A2096E8862F70E060E02AF09A95660F771FAB
S1130A30881FDAF7880F9695879597F90895990F87
S1130A400008550FAA0BE0E8FEEF16161706E80794
S1130A50F907C0F012161306E407F50798F0621BB5
S1130A60730B840B950B39F40A2661F0232B242B8A
S1130A70252B21F408950A2609F4A140A6958FEFA9
S1130A80811D811D089597F99F6780E870E060E0FB
S1130A9008959FEF80EC089500240A941616170613
S1130AA018060906089500240A941216130614065B
S1130AB005060895092E0394000C11F4882352F0BE
S1130AC0BB0F40F4BF2B11F460FF04C06F5F7F4F76
S1130AD08F4F9F4F089557FD9058440F551F59F05D
S1130AE05F3F71F04795880F97FB991F61F09F3F17
S1130AF079F087950895121613061406551FF2CF40
S1130B004695F1DF08C0161617061806991FF1CF8F
S1130B1086957105610508940895E894BB276627B6
S1130B207727CB0197F908950E941F0508F48FEFEA
S1130B3008950E94AC050C945A050E944C0538F0A7
S1130B400E94530520F0952311F00C9443050C9456
S1130B50490511240C948E050E946B0570F3959F32
S1130B60C1F3950F50E0551F629FF001729FBB27A0
S1130B70F00DB11D639FAA27F00DB11DAA1F649F3C
S1130B806627B00DA11D661F829F2227B00DA11DEF
S1130B90621F739FB00DA11D621F839FA00D611D75
S1130BA0221F749F3327A00D611D231F849F600D96
S1130BB0211D822F762F6A2F11249F5750409AF0BF
S1130BC0F1F088234AF0EE0FFF1FBB1F661F771F4B
S1130BD0881F91505040A9F79E3F510580F00C9416
S1130BE043050C948E055F3FE4F3983ED4F3869559
S1130BF077956795B795F795E7959F5FC1F7FE2BB6
S1130C00880F911D9695879597F90895F894FFCFCD
S9030000FC
